:020000040800F2
:1000000000200020D9010008DF010008E3010008FA
:1000100000000000000000000000000000000000E0
:1000200000000000000000000000000019020008AD
:1000300000000000000000001D020008D1120008AE
:1000400029020008290200082902000829020008E4
:1000500029020008290200082902000829020008D4
:1000600029020008290200082902000829020008C4
:10007000290200082902000829020008F1130008DB
:1000800029020008290200080000000029020008D7
:100090002902000829020008290200082902000894
:1000A0002902000829020008290200082902000884
:1000B00029020008000000002902000800000000DA
:1000C0005FF808F130B583B000F0D2FF304B314A11
:1000D0001360314A1360314B314A01E002CA02C356
:1000E00030498B42FAD32B4B1A682F4B9A4200D0DF
:1000F000FEE7294B1A682D4B9A42F9D1244B2C4A22
:1001000013602C4A13602C4B01E0002204C32B4ADD
:100110009342FAD3264B1B68002B03D1254B1B6857
:10012000002B00D0FEE700F0A7FF694601A800F011
:1001300031FF234C234BE41AA410002504E0AA004D
:10014000204BD35898470135AC42F8DC1E4C1F4B6E
:10015000E41AA410002504E0AA001C4BD3589847C9
:100160000135AC42F8DC0099019801F07DFA0500F8
:10017000174C184BE41AA41004E0013CA200154BE4
:10018000D3589847002CF8DC280000F0D3FEC04676
:10019000BABADECA0000002094000020000000204F
:1001A0002C24000898000020785634123254769897
:1001B00098000020600100209800002064010020C9
:1001C00054020008540200085402000854020008B7
:1001D000540200085402000810B5FFF773FF00BE78
:1001E000FEE704207146084202D0EFF3098001E0E7
:1001F000EFF3088071460B4A104770B504000D00FC
:10020000044800F0D9FE2900200000F039FF00BEAC
:10021000FEE7C0461823000800BEFEE700BEFEE76A
:0C02200070470000FB01000800BEFEE774
:10022C002C24000800000020980000202C2400083A
:10023C000000000000000000980000206401002075
:08024C000000000000000000AA
:1002540070B505000E009023DB05984212D03E4B8A
:1002640098420FD03D4B98420CD03D4B984209D058
:100274003C4B984206D03C4B984203D0AE213B48BD
:1002840000F08EFE3368002B07D03379032B09D896
:10029400F379022B0BD8002445E0AF21334800F05A
:1002A4007FFEF2E7B021314800F07AFEF0E7B12199
:1002B4002E4800F075FEEEE7C1212C4800F070FED8
:1002C400AB68610003228A409343AB60AB687279E8
:1002D4008A401343AB60B379012B37D8AB88210430
:1002E400090C01228A409343AB80A888B2798A40E2
:1002F40093B20343AB802A6861000323180088404B
:1003040082432A602A683079884002432A60EA6876
:100314002004C00B83409A43EA60EB68F2798A4078
:100324001343EB6001340F2C15D80123A34032682A
:100334001A409342F6D13379013BDBB2012BDAD870
:100344007379012BBCD9032BBAD0B5E7C821074870
:1003540000F026FEC2E770BD000400480008004813
:10036400000C0048001000480014004860210008F8
:1003740070B505000C0016009023DB05984213D0DD
:10038400194B984210D0194B98420DD0184B9842F3
:100394000AD0184B984207D0174B984204D08121B9
:1003A4008900164800F0FCFD0F2C12D8072E15D832
:1003B400072323409B009E40E40821000831890064
:1003C4004A590F20984082434A514B591E434E517B
:1003D40070BD0B49094800F0E3FDE7E70949074808
:1003E40000F0DEFDE4E7C0460004004800080048D1
:1003F400000C004800100048001400486021000868
:10040400050200000602000070B504007A4B58682B
:100414000C231840042851D008D9082852D00C289D
:1004240000D06DE0754B2360002003E0002867D105
:10043400734B2360704A516809090F230B40714EB6
:10044400F35CDBB22168D9400B00616055682D0A6A
:1004540007212940715CC9B2CB40A360126BD2055D
:1004640052D4694BE360644B1B6B5B0656D4674BF9
:100474002361614B1B6BDB0654D4614B63615E4BA0
:100484001B6B9B0751D1A368A3615B4B1A6BC02301
:100494009B021A4265D1A368E361574B1A6BC023D0
:1004A4001B031A4200D080E0A3682362524B1B6BEB
:1004B4001B0600D59DE0514B636270BD504B236019
:1004C4000020B7E74C4B5D685A68C0235B02AD0C53
:1004D4000F20054002351A4208D16B015B1B9801BD
:1004E400C01AC000451928022060A3E7424BDB6A0A
:1004F4000F2119400131424801F03AF96843F3E70A
:100504003F4B2360002095E73B4A5268520402D4D3
:100514005B08E360A7E79B08E360A4E780231B0272
:100524002361A6E723686361A9E7334B1A6B0323AE
:100534001340012B0ED0304B1A6B03231340022BB4
:100544000BD02D4B1A6B03231340032B9DD12C4B43
:10055400A3619AE72368A36197E780231B02A36141
:1005640093E7254B1B6BC022920213408022520258
:10057400934213D0204B1B6BC02292021340802263
:10058400920293420DD01C4B1B6BC022920213406B
:10059400934200D081E71A4BE3617EE72368E3616D
:1005A4007BE780231B02E36177E7134B1B6BC022BD
:1005B400120313408022D202934213D00E4B1B6BC2
:1005C400C022120313408022120393420DD00A4B1F
:1005D4001B6BC02212031340934200D066E7084B02
:1005E400236263E72368236260E780231B0223629C
:1005F4005CE7606261E7C04600100240006CDC0208
:1006040000127A0004000020809FD50012800000B0
:1006140070B504000D000E4B184201D1002803D11F
:100624000C490D4800F0BCFC012D06D8002D09D062
:100634000A4A53691C43546170BD0949064800F0D5
:10064400AFFCF3E7054A5369A3435361F4E7C0469B
:10065400A8FF81FE56050000942100080010024006
:100664005705000070B504000D000E4B184201D16F
:10067400002803D10C490D4800F092FC012D06D846
:10068400002D09D00A4A93691C43946170BD09493D
:10069400064800F085FCF3E7054A9369A343936198
:1006A400F4E7C0461EA5B8FF7D05000094210008AC
:1006B400001002407E05000070B504000D000E4BD2
:1006C400184201D1002803D10C490D4800F068FC00
:1006D400012D06D8002D09D00A4AD3691C43D461E0
:1006E40070BD0949064800F05BFCF3E7054AD3698D
:1006F400A343D361F4E7C046CCB68185AB050000C3
:100704009421000800100240AC05000070B50400FC
:100714000D00384B98421DD08023DB05984219D038
:10072400354B984216D0354B984213D0344B9842EF
:1007340010D0344B98420DD0334B98420AD0334BEF
:10074400984207D0324B984204D086214900314860
:1007540000F026FC6B88002B07D0102B05D0202B33
:1007640003D0402B01D0602B38D12B89002B07D02C
:1007740080225200934203D00132FF32934233D19C
:1007840023889BB21B4A944206D08022D20594420D
:1007940002D0194A944203D1702293436A881343C6
:1007A400164A944204D01C4A13402A8913439BB22C
:1007B40023806B68E3622B8823850E4B9C4208D010
:1007C400114B9C4205D0114B9C4202D0104B9C42D1
:1007D40001D1AB7A23860123A38270BD0E21FF31A0
:1007E4000C4800F0DDFBC0E787214900094800F010
:1007F400D7FBC5E7002C0140000400400010004076
:10080400001400400020004000400140004401402A
:1008140000480140C4210008FFFCFFFF70B504003C
:100824000D001A4B98421DD08023DB05984219D045
:10083400174B984216D0174B984213D0164B984238
:1008440010D0164B98420DD0154B98420AD0154B38
:10085400984207D0144B984204D09721890013483A
:1008640000F09EFB012D06D8002D09D0238801221B
:100874001343238070BD0E490C4800F091FBF3E74D
:100884002388012293432380F4E7C046002C0140CF
:10089400000400400010004000140040002000400C
:1008A400004001400044014000480140C4210008C8
:1008B4005D02000070B504000D0016001D4B984247
:1008C4001CD08023DB05984218D01B4B984215D0CE
:1008D4001A4B984212D01A4B98420FD0194B984297
:1008E4000CD0194B984209D0184B984206D0184B9B
:1008F400984203D01749184800F052FBFF232A00FE
:100904009A4301D1002D03D11449134800F048FB48
:10091400012E05D8002E08D0A3891D43A58170BDE2
:100924000F490D4800F03CFBF4E7A389AB43A381D6
:10093400F5E7C046002C01400004004000100040D0
:1009440000140040002000400040014000440140E9
:10095400004801403A090000C42100083B09000096
:100964003C09000070B505000C00164B98421CD0E1
:100974008023DB05984218D0134B984215D0134BB3
:10098400984212D0124B98420FD0124B98420CD07E
:10099400114B984209D0114B984206D0104B984203
:1009A40003D01049104800F0FBFA104B1C4201D14F
:1009B400002C03D10E490C4800F0F2FAE443A4B22F
:1009C4002C8270BD002C0140000400400010004047
:1009D4000014004000200040004001400044014059
:1009E40000480140BB090000C421000800E1FFFFEA
:1009F400BC090000F0B58DB004000D00684B9842AE
:100A040018D0684B984215D0674B984212D0674B68
:100A140098420FD0664B98420CD0664B984209D04E
:100A2400654B984206D0654B984203D0F221644846
:100A340000F0B6FA2B68013B624A934200D984E085
:100A44006B68002B07D080225201934203D05E4A88
:100A5400934200D07EE0AB68002B08D08022920144
:100A6400934204D0C0229201934200D077E0EB6815
:100A7400002B08D08022D200934204D0C022D2009E
:100A8400934200D070E02B690C221900914301D1EC
:100A9400002B03D1F7214A4800F082FA6B69002B3E
:100AA4000BD080225200934207D00132FF3293428E
:100AB40003D00132FF3293425BD123680122934376
:100AC40023606368414A1340AA6813436360236840
:100AD4003F4A1A406B68E9680B4329690B43134387
:100AE4002360A3683B4A13406A691343A36002A8C6
:100AF400FFF78AFC2A4B9C4240D02A4B9C423FD0B1
:100B0400294B9C423ED0049E23681B043CD57600AE
:100B14002B6801931900300000F02AFE07000199A8
:100B2400300000F0ABFE2B685B088B4200D8013725
:100B340023681B0405D57A0807231340264A174067
:100B44001F43BBB2A3810DB0F0BDF3211C4800F0DC
:100B540027FA75E7F4211A4800F022FA7BE7F52119
:100B6400174800F01DFA82E7F621154800F018FA3C
:100B740089E7F821124800F013FA9EE7089EC3E7BC
:100B8400099EC1E70A9EBFE72B6801931900300054
:100B940000F0EEFD07000199300000F06FFEC2E79F
:100BA400003801400044004000480040004C004030
:100BB400005000400014014000180140001C014096
:100BC400F42100087F8D5B0000100010FFCFFFFFB1
:100BD400F3E9FFFFFFFCFFFFF0FF000070B5040026
:100BE4000D00184B984219D0174B984216D0174B4A
:100BF400984213D0164B984210D0164B98420DD001
:100C0400154B98420AD0154B984207D0144B984282
:100C140004D0D6214900134800F0C2F9012D06D8AA
:100C2400002D0AD0236801221343236070BDAE2136
:100C3400FF310C4800F0B4F9F2E723680122934332
:100C44002360F3E7003801400044004000480040BE
:100C5400004C0040005000400014014000180140C6
:100C6400001C0140F421000870B505000C00144B71
:100C7400984218D0134B984215D0134B984212D077
:100C8400124B98420FD0124B98420CD0114B984201
:100C940009D0114B984206D0104B984203D010490A
:100CA400104800F07DF9104B9C4203D8E405E40D94
:100CB4002C8570BD0D490B4800F072F9F6E7C0466B
:100CC400003801400044004000480040004C00400F
:100CD400005000400014014000180140001C014075
:100CE400B6030000F4210008FF010000B703000070
:100CF40010B50400104B984219D0104B984216D0EE
:100D04000F4B984213D00F4B984210D00E4B984281
:100D14000DD00E4B98420AD00D4B984207D00D4B84
:100D2400984204D0F22189000B4800F039F9A08CD4
:100D3400C005C00D10BDC04600380140004400404D
:100D440000480040004C00400050004000140140A6
:100D540000180140001C0140F421000870B5040093
:100D64000D00384B984218D0374B984215D0374B6A
:100D7400984212D0364B98420FD0364B98420CD042
:100D8400354B984209D0354B984206D0344B9842A3
:100D940003D03449344800F003F9012D45D0802DA7
:100DA40043D0402D41D0202D3FD0102D3DD0802365
:100DB4005B009D4239D00133FF339D4235D0082D6D
:100DC40033D0042D31D0022D2FD08023DB009D425F
:100DD4002BD080231B019D4227D080235B019D42A1
:100DE40023D08023DB019D421FD080231B029D4220
:100DF4001BD080235B029D4217D080239B029D421F
:100E040013D08023DB029D420FD080231B039D421D
:100E14000BD080235B039D4207D080239B039D421C
:100E240003D08023DB039D4204D1E3691D4206D035
:100E3400012070BD0D490C4800F0B2F8F5E7002020
:100E4400F7E7C04600380140004400400048004035
:100E5400004C0040005000400014014000180140C4
:100E6400001C0140C2070000F4210008C307000071
:100E740070B504000D00234B984218D0224B9842C1
:100E840015D0224B984212D0214B98420FD0214BBF
:100E940098420CD0204B984209D0204B984206D05F
:100EA4001F4B984203D01F491F4800F079F8802354
:100EB4005B039D421FD0402D1DD0102D1BD0082D4B
:100EC40019D0042D17D0022D15D080235B009D422C
:100ED40011D00133FF339D420DD080231B019D426D
:100EE40009D080235B019D4205D080239B029D4253
:100EF40001D0012D01D1256270BD0C490A4800F0D2
:100F04004FF8F8E700380140004400400048004032
:100F1400004C004000500040001401400018014003
:100F2400001C0140F4070000F4210008F50700004C
:100F3400FEE7000010B5034800F054F80120FFF765
:100F4400F7FFC0462822000810B503000D4A1268B6
:100F5400002A0BD00B4A1068033303229343C318AF
:100F6400094A934206D8074A136010BD054A074947
:100F74001160EFE700F08CFC0C2303600120404279
:100F8400F3E7C0469C000020001C00206401002000
:100F940001230360014B0B607047C046140000201E
:100FA40010B50A000100024800F004F8FFF7C2FF80
:100FB4003C2200080FB400B583B004AB04CB01930A
:100FC4008021074800F0C4FC002803DC03B008BCFF
:100FD40004B018470100024800F044F8F6E7C046A0
:100FE400A400002010B5040000F080FC01002000E3
:100FF40000F038F80121024800F034F810BDC04672
:1010040074220008F0B5C64600B586B0040001910C
:101014004356002B24D10426301C211CABBE041CD7
:10102400019806B004BC9046F0BD02AA9046002286
:101034004146CA540425281C4146ABBE8046BF1B0A
:10104400002FEDD03E00102F00D910260023B3420C
:10105400EBD20022A25602A9CA5401330134F6E7A6
:10106400019FEDE710B5FFF7CDFF10BD10B500F0FF
:10107400A3F810BD10B500F0D1F810BD70B5040090
:101084000D001548FFF796FF21681448FFF792FFFB
:1010940061681348FFF78EFFA1681248FFF78AFFC3
:1010A400E1681148FFF786FF21691048FFF782FFC6
:1010B40061690F48FFF77EFFA1690E48FFF77AFFC9
:1010C400E1690D48FFF776FF0C48FFF773FF29002D
:1010D4000B48FFF76FFF70BD6822000878220008F4
:1010E4008822000898220008A8220008B8220008D4
:1010F400C8220008D8220008E8220008F8220008C4
:101104000023000882B0002301930093274A11684A
:1011140080235B020B431360244B1B6880229202E2
:1011240013400093019B01330193009B002B04D1D6
:10113400019AA023DB019A42EED11C4B1B689B034E
:1011440006D501230093009B012B04D002B0704705
:1011540000230093F7E7164B11221A60134B5A68C9
:101164005A605A685A605A6812490A405A60596863
:10117400882252030A435A601968802252040A439F
:101184001A600A4B1B689B01FBD5084B5A68032164
:101194008A435A605A6801390A435A60034B5A68B1
:1011A4000C231340082BF9D1D0E7C04600100240AD
:1011B40000200240FF7FC0FF10B5124B1A680121C6
:1011C4000A431A605A68104802405A601A680F4865
:1011D40002401A601A680E4802401A605A680D48A4
:1011E40002405A60DA6A0F208243DA621A6B0A48B4
:1011F40002401A635A6B8A435A6300229A60FFF7CB
:1012040081FF10BD001002400CB8FFF8FFFFF6FE8E
:10121400FFFFFBFFFFFFC0FFACFEFFFF10B5214B3C
:101224005A680C231340042B17D0082B19D0002B19
:1012340003D01D4B1D4A1A6002E01B4B1B4A1A6067
:10124400184B5A6812090F231340194AD35CDBB2B6
:10125400154A1168D940116010BD134B134A1A6026
:10126400EEE7104B58685A68C0235B02800C0F24C9
:10127400044002341A4209D163011B1B9801C01AAD
:10128400C00004192302084A1360D9E7054BDB6A3E
:101294000F2119400131054800F06AFA4443024B1A
:1012A4001C60CDE7001002402C00002000127A00E0
:1012B4001C000020044B1B68002B03D0024A136857
:1012C400013B13607047C0465001002010B5FFF782
:1012D400F1FF10BD70B506000D00002400E00134DC
:1012E400AC420AD2315D0F48FFF7BEFC80210D48A5
:1012F400FFF734FD0028F9D0F1E70D210948FFF785
:10130400B3FC80210748FFF729FD0028F9D00A2102
:101314000448FFF7A9FC80210248FFF71FFD0028BD
:10132400F9D070BD0044004030B587B0002301936C
:101334001022002102A800F0B1FA01AB20221A7099
:1013440001240EE008211448FFF708FD002808D006
:101354000DE00134631E01AAD3564B2B18D04F2B3A
:1013640016D020210C48FFF7F9FC0028EAD00A4DDA
:1013740008212800FFF77CFD2800FFF7B9FC01AB2A
:101384001855122CE5D112229A561A70113CE1E735
:10139400002007B030BDC0460044004010B5040032
:1013A40000F0A4FA01002000FFF794FF0348FFF7C0
:1013B400BBFF002800D0012010BDC0464423000814
:1013C40030B59FB004000D0078220021684600F07B
:1013D40065FA2B0022000449684600F067FA684663
:1013E400FFF7DCFF1FB030BD28230008F0B5C64668
:1013F40000B5594CA544594B1A68FA239B009A42EC
:1014040056D080200121C005FFF7ACFA544B0022CE
:101414009A629A6A10210A439A62514B1B68DB074D
:10142400FBD54F4A936804210B4393604C4B1B68D4
:101434005B07FBD54A4A136C484908684949086068
:1014440049498C46634449490B605B4348490868F1
:10145400844663440B6000239362936A20210B4308
:1014640093623F4B1B68DB07FBD53D4A936804211D
:101474000B4393603A4B1B685B07FBD5384B1B6CE3
:101484003C4A94466344394A13605B433A4A1168C0
:101494008C4663441360314B1968384A11601A68EA
:1014A40001321A6098239B009D4404BC9046F0BD11
:1014B400334B1A6801321A601A68324B9A4247D089
:1014C40031493248FFF77CFF264E31682B4D2A689C
:1014D4002F48FFF76FFD30682B68C01A00F0D4F96D
:1014E400274B1A68244F3B680190214988460968B4
:1014F4000091284920A800F0D9F90024174B1C605A
:10150400254B1A68511C19602448FFF753FD20A984
:101514002348FFF74FFD43461C603C6034602C6059
:101524007822002102A800F0B9F920A800F0DEF921
:1015340002001C4902A800F0B9F902A8FFF72EFF27
:1015440020A800F0D3F9010020A8FFF7C3FE58E754
:101554000B4B00221A60B3E7A0FDFFFF240100201B
:1015640000240140280100206CF8FFFF3001002016
:101574002C01002000F8FFFF400100203C01002066
:101584003801002080510100482300084C23000842
:101594005C2300086823000834010020AC23000801
:1015A400B8230008E823000810B584B01249CB69B9
:1015B40001221343CB6101A900230B814B804A60B4
:1015C40096235B010B8000238B728024E4052000AA
:1015D400FFF79CF8012201212000FFF76BF901219C
:1015E4002000FFF71BF9054A116880231B020B43F7
:1015F400136004B010BDC0460010024000E100E0DA
:1016040010B5164B5969802292020A435A619021FF
:10161400C9050868F022120102430A609969802210
:1016240092000A439A615A6B01210A435A630B4B95
:101634005B6B9B07FBD50A4A936801210B439360BC
:10164400074B1B68DB07FBD5054B9A680423134043
:10165400012BF9D0FFF7A8FF10BDC04600100240CF
:1016640000240140F0B5D64600B588B03948FFF7EC
:10167400B9FC394B19683948FFF79CFCFFF7C0FFE8
:101684008024A40201212000FEF7C2FF01212000D2
:10169400FFF712F8012202219020C005FEF768FE30
:1016A400012203219020C005FEF762FE0C2600965D
:1016B40003239A466B4652465A7102251D71002433
:1016C4009C71DC7169469020C005FEF7C1FDE127DD
:1016D4007F0202970394049405940794069602A942
:1016E4001F48FFF787F901211D48FFF777FA80208B
:1016F4000121C001FEF7B6FF012209219020C00597
:10170400FEF736FE01220A219020C005FEF730FEC6
:10171400C023DB0000936B4652465A711D719C71C5
:10172400DC7169469020C005FEF792FD0297039490
:1017340004940594079406960A4C02A92000FFF726
:1017440059F901212000FFF749FA07490748FFF733
:1017540037FEFEE7BC2300082C000020D02300083D
:101764000044004000380140482300084C2300088E
:10177400002243088B4274D303098B425FD3030ACC
:101784008B4244D3030B8B4228D3030C8B420DD3DF
:10179400FF22090212BA030C8B4202D3121209026D
:1017A40065D0030B8B4219D300E0090AC30B8B42AB
:1017B40001D3CB03C01A5241830B8B4201D38B0359
:1017C400C01A5241430B8B4201D34B03C01A5241FE
:1017D400030B8B4201D30B03C01A5241C30A8B4241
:1017E40001D3CB02C01A5241830A8B4201D38B022C
:1017F400C01A5241430A8B4201D34B02C01A5241D0
:10180400030A8B4201D30B02C01A5241CDD2C30941
:101814008B4201D3CB01C01A524183098B4201D3BD
:101824008B01C01A524143098B4201D34B01C01AA8
:10183400524103098B4201D30B01C01A5241C30820
:101844008B4201D3CB00C01A524183088B4201D38F
:101854008B00C01A524143088B4201D34B00C01A7B
:101864005241411A00D20146524110467047FFE7E7
:1018740001B5002000F006F802BDC0460029F7D0EB
:1018840076E770477047C046C317C0185840704782
:10189400014B18687047C04630000020030012183E
:1018A400934200D1704719700133F9E70EB400B5C3
:1018B4000B499CB01DAB0290069007910491094816
:1018C400094904CB0591006802A9019300F0AEF820
:1018D4000023029A13701CB008BC03B01847C0461A
:1018E400FFFFFF7F300000200802FFFF0023C25CDF
:1018F4000133002AFBD1581E704730B514009BB049
:1019040005001A00002C05DA8B23036001204042F5
:101914001BB030BD822368469B0083810023009165
:1019240004919C4200D0631E0293059301236946EF
:101934005B42CB8128001E9B00F078F8431C01DA3F
:101944008B232B60002CE3D00023009A1370DFE775
:1019540007B5009313000A00010002480068FFF76E
:10196400CCFF0EBD30000020F0B58E6885B00700B6
:101974000C00039201939E423CD890238A89DB0099
:101984001A4234D00325096923685B1A02936369F8
:1019940002985D43EB0F5D19019B6D1001331B1819
:1019A400AB4200D91D00530532D52900380000F0A0
:1019B40025FB061E09D10C233B6040230120A2898C
:1019C40040421343A38105B0F0BD029A216900F09F
:1019D400AEFAA389144A1A4080231343A381029BBD
:1019E4002661F61826606561019EED1AA560019BCB
:1019F4009E4200D9019E32000399206800F0A0FAAB
:101A0400A36800209B1BA36023689E192660DAE765
:101A14002A00380000F050FB061EE0D1216938008E
:101A240000F0A2FAC7E7C0467FFBFFFFF0B5A1B004
:101A340003901D008B890F0016001B0611D50B693E
:101A4400002B0ED1402100F0D9FA3860386100280B
:101A540005D10C23039A0138136021B0F0BD402353
:101A64007B61002308AC6361203363761033A37673
:101A7400079535002B78002B01D0252B46D1AB1BC5
:101A840005930CD0320039000398FFF76DFF431C17
:101A940000D1AEE06269059B9446634463612B7890
:101AA400002B00D1A5E0012200235242626004A968
:101AB400543252186E1C2360E360A3601370A36554
:101AC40031780522534800F027FA751C00281FD1ED
:101AD4002268D30604D5532304A95B182021197066
:101AE400130704D5532304A95B182B2119703378E9
:101AF4002A2B16D0350000210A20E3682A786E1CB0
:101B0400303A092A4ED9002911D117E00135B1E73D
:101B1400404B2268C01A01238340134323602E00E4
:101B2400CEE7079B191D1B680791002B01DB0B9364
:101B340004E05B42E3600223134323602B782E2BE3
:101B44000AD16B782A2B35D1079B02351A1D1B68E5
:101B54000792002B2BDB09932F4E297803223000A8
:101B640000F0DAF9002806D04023801B8340226865
:101B74000135134323602978062228486E1C2176F8
:101B840000F0CAF900283CD0254B002B25D10722B0
:101B9400079B07339343083307936369049A9B189D
:101BA400636166E7434301219B183500A6E70123DF
:101BB4005B42D0E700230A201A00013563602978CC
:101BC4006E1C3039092903D9002BC5D00992C3E70B
:101BD4004243012352183500F1E707AB00933A0062
:101BE400104B2100039800E000BF0490049B0133D4
:101BF400D3D1BB890D985B0600D42EE70120404267
:101C04002BE707AB00933A00064B2100039800F042
:101C140079F8EAE7F8230008FE2300080224000804
:101C2400000000006D190008F7B5150001938A68DB
:101C34000B6900900C00934200DA130022002B6021
:101C440043321278002A01D001332B6023689B06AB
:101C540002D52B6802332B60062723681F4027D048
:101C6400230043331B785A1E93412268920630D4D2
:101C74002200019943320098089EB047431C25D0A6
:101C8400062320682A68E16803400025042B03D159
:101C94008D1AEB43DB171D40A3682269934201DDD3
:101CA4009B1AED180027BD4220D1002010E0013717
:101CB400E3682A689B1ABB42D2DD22000123193251
:101CC40001990098089EB047431CF0D1012040427E
:101CD400FEBD3020E1184331087021005A1C453103
:101CE4000978A218433202331170C1E7220001239C
:101CF4001A3201990098089EB047431CE6D0013778
:101D0400D1E70000F0B58BB006920A004332079386
:101D1400059004920A7E0C00109B6E2A00D1AFE05D
:101D240020D8632A35D008D8002A00D1B5E0582A33
:101D340051D026004236327032E0642A01D0692A3A
:101D4400F7D1196820680A1D05062BD50D681A609D
:101D5400002D03DA2D23049A6D4213706C4B0A276D
:101D6400039352E0732A00D19BE008D86F2A1FD056
:101D7400702ADED1202209680A43226003E0752A12
:101D840016D0782AD5D12200782145321170614AC3
:101D940024E026001A684236111D19601368337056
:101DA40001238CE00D681A604106D1D52DB2CFE72E
:101DB40019682568081D18602E0601D50D6803E012
:101DC4006D06FBD50D68ADB2514B0A2703936F2AFC
:101DD40017D1082715E045310A704D4A03921A6855
:101DE400216820CA1A60080644D5CB0702D52023EF
:101DF400194321601027002D03D1202322689A4320
:101E040022602300002243331A706368A360002B0E
:101E140003DB0422216891432160002D02D1049E3A
:101E2400002B0AD0049E39002800FFF727FD039BEE
:101E3400013E5B5C3370AF4220D9082F09D123687F
:101E4400DB0706D563682269934202DC3023013E36
:101E54003370049B9B1B2361079B09AA00932100F9
:101E6400069B0598FFF7E0FE431C2DD1012040425C
:101E74000BB0F0BD4806B8D5ADB2B6E70500D2E761
:101E84001A680D68101D4969186013682E0601D57B
:101E9400196002E06D06FBD519800023049E2361BE
:101EA400DAE71A68111D19601668002162683000AB
:101EB40000F032F8002801D0801B60606368236161
:101EC4000023049A1370C7E7236932000699059822
:101ED400079DA847431CC9D023689B0715D4099BB9
:101EE400E0689842C4DA1800C2E7220001231932DC
:101EF40006990598079EB047431CB7D00135E3689F
:101F0400099A9B1AAB42F0DCE9E70025F7E7C046E3
:101F1400092400081A240008C9B28218904201D189
:101F24000020704703788B42FBD00130F6E7002392
:101F340010B59A4200D110BDCC5CC4540133F8E70B
:101F440010B5884202D98B18984203D3002307E0C6
:101F54008B5C8354013AFBD210BDCC5CC454013376
:101F64009A42FAD1F8E7000070B50500002910D0B4
:101F74000C1F2368002B00DAE418280000F0D4F8C2
:101F84001D4A1368002B05D163601460280000F01B
:101F9400D3F870BDA34209D9216860188342F3D1F4
:101FA40018685B6841182160EEE713005A68002A3C
:101FB40001D0A242F9D919685818A0420BD120685F
:101FC4000918581819608242E0D110685268411803
:101FD40019605A60DAE7A04202D90C232B60D5E7D6
:101FE40021686018824203D1106852684118216048
:101FF40062605C60CAE7C04644010020F8B5032370
:10200400CD1C9D43083506000C2D1FD20C25A9427A
:102014001ED8300000F088F825490A681400002C06
:102024001AD1244F3B68002B04D12100300000F06A
:1020340069F838602900300000F064F8431C2AD1A4
:102044000C233000336000F077F803E0002DDEDA73
:102054000C2333600020F8BD23685B1B18D40B2BC2
:1020640003D92360E418256003E06368A2420DD11C
:102074000B60300000F060F8200007220B30231DB5
:102084009043C21AE7D01B1AA350E4E75360F0E769
:1020940022006468C3E70323C41C9C43A042E2D02B
:1020A400211A300000F02EF8431CDCD1C8E7C046EA
:1020B4004401002048010020F8B507000D00160077
:1020C400002905D11100FFF799FF04002000F8BD95
:1020D400002A03D1FFF748FF3400F7E700F034F893
:1020E4002C00B042F2D231003800FFF787FF041E03
:1020F400ECD029003200FFF71AFF29003800FFF75F
:1021040033FFE3E7002370B5064C050008002360A5
:10211400FEF71AFF431C03D12368002B00D02B6069
:1021240070BDC0464C01002010B5024800F014F800
:1021340010BDC0465801002010B5024800F00DF84B
:1021440010BDC046580100200B1F1B68181F002B30
:1021540001DA0B58C0187047704770472E2E2F7342
:10216400797374656D2F7372632F73746D33326674
:10217400302D7374647065726970682F73746D3375
:1021840032663078785F6770696F2E6300000000F4
:102194002E2E2F73797374656D2F7372632F73747E
:1021A4006D333266302D7374647065726970682F94
:1021B40073746D3332663078785F7263632E6300B4
:1021C4002E2E2F73797374656D2F7372632F73744E
:1021D4006D333266302D7374647065726970682F64
:1021E40073746D3332663078785F74696D2E630072
:1021F4002E2E2F73797374656D2F7372632F73741E
:102204006D333266302D7374647065726970682F33
:1022140073746D3332663078785F75736172742EBF
:102224006300000061626F727428292C206578694C
:1022340074696E672E2E2E006173736572745F70FD
:102244006172616D2829206661696C65643A206653
:10225400696C6520222573222C206C696E6520250B
:10226400640A0000537461636B206672616D653AA1
:102274000A000000205230203D2020253038580A22
:1022840000000000205231203D2020253038580A1B
:1022940000000000205232203D2020253038580A0A
:1022A40000000000205233203D2020253038580AF9
:1022B4000000000020523132203D20253038580AD9
:1022C40000000000204C52203D2020253038580AC0
:1022D40000000000205043203D2020253038580ABB
:1022E4000000000020505352203D20253038580A69
:1022F400000000004D6973630A000000204C522F57
:102304004558435F52455455524E3D202530385868
:102314000A0000005B486172644661756C745D0A72
:102324000000000041542B43495053544152543D42
:1023340022544350222C222573222C2573000000A2
:102344004F4B00003830000035342E3139312E34F3
:10235400312E3930000000002564202C2025640A29
:10236400000000006D657465725F69643D312C2066
:1023740074696D657374616D703D25642C20766F8E
:102384006C746167653D25642C2063757272656E9B
:10239400743D25642C20706F7765725F6661637489
:1023A4006F723D25640A00005365636F6E642025D7
:1023B400750A000025730A0048656C6C6F20415251
:1023C4004D20576F726C64210000000053797374C0
:1023D400656D20636C6F636B3A20257520487A0A1B
:1023E4000000000041542B43495053454E443D25C1
:1023F40075000000232D302B2000686C4C006566AE
:102404006745464700303132333435363738394141
:102414004243444546003031323334353637383957
:07242400616263646566005C
:10242C007856341200000000010203040102030478
:10243C0006070809A00000200000000000000000B2
:10244C00000000000102030406070809006CDC020E
:10245C00340000200000000000000000000000001C
:10246C000000000000000000000000000000000060
:10247C000000000000000000000000000000000050
:10248C000000000000000000000000000000000040
:10249C000000000000000000000000000000000030
:1024AC000000000000000000000000000000000020
:0824BC00000000003254769884
:04000005080000C52A
:00000001FF
